{
  "contractName": "MusiciansManager",
  "abi": [
    {
      "inputs": [],
      "stateMutability": "nonpayable",
      "type": "constructor"
    },
    {
      "anonymous": false,
      "inputs": [
        {
          "components": [
            {
              "internalType": "string",
              "name": "_title",
              "type": "string"
            },
            {
              "internalType": "uint256",
              "name": "_duration",
              "type": "uint256"
            }
          ],
          "indexed": false,
          "internalType": "struct MusiciansManager.Track[]",
          "name": "_tracks",
          "type": "tuple[]"
        }
      ],
      "name": "getTheTracks",
      "type": "event"
    },
    {
      "anonymous": false,
      "inputs": [
        {
          "indexed": false,
          "internalType": "string",
          "name": "_artistName",
          "type": "string"
        }
      ],
      "name": "musicianCreated",
      "type": "event"
    },
    {
      "anonymous": false,
      "inputs": [
        {
          "indexed": false,
          "internalType": "string",
          "name": "_artistName",
          "type": "string"
        },
        {
          "indexed": false,
          "internalType": "string",
          "name": "_title",
          "type": "string"
        }
      ],
      "name": "trackAdded",
      "type": "event"
    },
    {
      "inputs": [
        {
          "internalType": "address",
          "name": "_musicianAddress",
          "type": "address"
        },
        {
          "internalType": "string",
          "name": "_artistName",
          "type": "string"
        }
      ],
      "name": "addMusician",
      "outputs": [],
      "stateMutability": "nonpayable",
      "type": "function"
    },
    {
      "inputs": [
        {
          "internalType": "address",
          "name": "_musicianAddress",
          "type": "address"
        },
        {
          "internalType": "string",
          "name": "_title",
          "type": "string"
        },
        {
          "internalType": "uint256",
          "name": "_duration",
          "type": "uint256"
        }
      ],
      "name": "addTrack",
      "outputs": [],
      "stateMutability": "nonpayable",
      "type": "function"
    },
    {
      "inputs": [
        {
          "internalType": "address",
          "name": "_musicianAddress",
          "type": "address"
        }
      ],
      "name": "getTracks",
      "outputs": [],
      "stateMutability": "nonpayable",
      "type": "function"
    }
  ],
  "bytecode": "0x608060405234801561001057600080fd5b5033600160006101000a81548173ffffffffffffffffffffffffffffffffffffffff021916908373ffffffffffffffffffffffffffffffffffffffff160217905550610ded806100616000396000f3fe608060405234801561001057600080fd5b50600436106100415760003560e01c80636bcc7782146100465780637b061e3814610062578063b14efb5f1461007e575b600080fd5b610060600480360381019061005b9190610626565b61009a565b005b61007c60048036038101906100779190610799565b610114565b005b6100986004803603810190610093919061082b565b6102c5565b005b7f1c56b8acd78e4cf62b13bf2065d86aaa91f6e5d4ca142798d8e8d03edc5a4a006000808373ffffffffffffffffffffffffffffffffffffffff1673ffffffffffffffffffffffffffffffffffffffff1681526020019081526020016000206001016040516101099190610af0565b60405180910390a150565b3373ffffffffffffffffffffffffffffffffffffffff16600160009054906101000a900473ffffffffffffffffffffffffffffffffffffffff1673ffffffffffffffffffffffffffffffffffffffff16146101a4576040517f08c379a000000000000000000000000000000000000000000000000000000000815260040161019b90610b6f565b60405180910390fd5b60008060008473ffffffffffffffffffffffffffffffffffffffff1673ffffffffffffffffffffffffffffffffffffffff16815260200190815260200160002060000180546101f2906108fa565b905014610234576040517f08c379a000000000000000000000000000000000000000000000000000000000815260040161022b90610bdb565b60405180910390fd5b806000808473ffffffffffffffffffffffffffffffffffffffff1673ffffffffffffffffffffffffffffffffffffffff1681526020019081526020016000206000019080519060200190610289929190610511565b507f08e51fe4815297917128fa893659743d8634168b341c5e8e6d4c0c5a81394bcc816040516102b99190610c72565b60405180910390a15050565b3373ffffffffffffffffffffffffffffffffffffffff16600160009054906101000a900473ffffffffffffffffffffffffffffffffffffffff1673ffffffffffffffffffffffffffffffffffffffff1614610355576040517f08c379a000000000000000000000000000000000000000000000000000000000815260040161034c90610b6f565b60405180910390fd5b60008060008573ffffffffffffffffffffffffffffffffffffffff1673ffffffffffffffffffffffffffffffffffffffff16815260200190815260200160002060000180546103a3906108fa565b9050116103e5576040517f08c379a00000000000000000000000000000000000000000000000000000000081526004016103dc90610ce0565b60405180910390fd5b600060405180604001604052808481526020018381525090506000808573ffffffffffffffffffffffffffffffffffffffff1673ffffffffffffffffffffffffffffffffffffffff1681526020019081526020016000206001018190806001815401808255809150506001900390600052602060002090600202016000909190919091506000820151816000019080519060200190610485929190610511565b506020820151816001015550507f5115c96efdf6d18732cb7d6340f8d69c0d0f4f2c14e9b01b435a1190ce443c3d6000808673ffffffffffffffffffffffffffffffffffffffff1673ffffffffffffffffffffffffffffffffffffffff16815260200190815260200160002060000184604051610503929190610d80565b60405180910390a150505050565b82805461051d906108fa565b90600052602060002090601f01602090048101928261053f5760008555610586565b82601f1061055857805160ff1916838001178555610586565b82800160010185558215610586579182015b8281111561058557825182559160200191906001019061056a565b5b5090506105939190610597565b5090565b5b808211156105b0576000816000905550600101610598565b5090565b6000604051905090565b600080fd5b600080fd5b600073ffffffffffffffffffffffffffffffffffffffff82169050919050565b60006105f3826105c8565b9050919050565b610603816105e8565b811461060e57600080fd5b50565b600081359050610620816105fa565b92915050565b60006020828403121561063c5761063b6105be565b5b600061064a84828501610611565b91505092915050565b600080fd5b600080fd5b6000601f19601f8301169050919050565b7f4e487b7100000000000000000000000000000000000000000000000000000000600052604160045260246000fd5b6106a68261065d565b810181811067ffffffffffffffff821117156106c5576106c461066e565b5b80604052505050565b60006106d86105b4565b90506106e4828261069d565b919050565b600067ffffffffffffffff8211156107045761070361066e565b5b61070d8261065d565b9050602081019050919050565b82818337600083830152505050565b600061073c610737846106e9565b6106ce565b90508281526020810184848401111561075857610757610658565b5b61076384828561071a565b509392505050565b600082601f8301126107805761077f610653565b5b8135610790848260208601610729565b91505092915050565b600080604083850312156107b0576107af6105be565b5b60006107be85828601610611565b925050602083013567ffffffffffffffff8111156107df576107de6105c3565b5b6107eb8582860161076b565b9150509250929050565b6000819050919050565b610808816107f5565b811461081357600080fd5b50565b600081359050610825816107ff565b92915050565b600080600060608486031215610844576108436105be565b5b600061085286828701610611565b935050602084013567ffffffffffffffff811115610873576108726105c3565b5b61087f8682870161076b565b925050604061089086828701610816565b9150509250925092565b600081549050919050565b600082825260208201905092915050565b60008190508160005260206000209050919050565b7f4e487b7100000000000000000000000000000000000000000000000000000000600052602260045260246000fd5b6000600282049050600182168061091257607f821691505b60208210811415610926576109256108cb565b5b50919050565b600082825260208201905092915050565b60008190508160005260206000209050919050565b6000815461095f816108fa565b610969818661092c565b945060018216600081146109845760018114610996576109c9565b60ff19831686526020860193506109c9565b61099f8561093d565b60005b838110156109c1578154818901526001820191506020810190506109a2565b808801955050505b50505092915050565b60008160001c9050919050565b6000819050919050565b60006109fc6109f7836109d2565b6109df565b9050919050565b610a0c816107f5565b82525050565b60006040830160008084018583036000870152610a2f8382610952565b92505060018401549050610a42816109e9565b610a4f6020870182610a03565b50819250505092915050565b6000610a678383610a12565b905092915050565b6000600282019050919050565b6000610a878261089a565b610a9181856108a5565b935083602082028501610aa3856108b6565b8060005b85811015610ade57848403895281610abf8582610a5b565b9450610aca83610a6f565b925060208a01995050600181019050610aa7565b50829750879550505050505092915050565b60006020820190508181036000830152610b0a8184610a7c565b905092915050565b600082825260208201905092915050565b7f596f7572206e6f7420746865206f776e65720000000000000000000000000000600082015250565b6000610b59601283610b12565b9150610b6482610b23565b602082019050919050565b60006020820190508181036000830152610b8881610b4c565b9050919050565b7f74686973206d7573696369616e20616c72656164792065786973740000000000600082015250565b6000610bc5601b83610b12565b9150610bd082610b8f565b602082019050919050565b60006020820190508181036000830152610bf481610bb8565b9050919050565b600081519050919050565b60005b83811015610c24578082015181840152602081019050610c09565b83811115610c33576000848401525b50505050565b6000610c4482610bfb565b610c4e8185610b12565b9350610c5e818560208601610c06565b610c678161065d565b840191505092915050565b60006020820190508181036000830152610c8c8184610c39565b905092915050565b7f74686973206d7573696369616e20646f6573206e6f7420657869737400000000600082015250565b6000610cca601c83610b12565b9150610cd582610c94565b602082019050919050565b60006020820190508181036000830152610cf981610cbd565b9050919050565b60008154610d0d816108fa565b610d178186610b12565b94506001821660008114610d325760018114610d4457610d77565b60ff1983168652602086019350610d77565b610d4d8561093d565b60005b83811015610d6f57815481890152600182019150602081019050610d50565b808801955050505b50505092915050565b60006040820190508181036000830152610d9a8185610d00565b90508181036020830152610dae8184610c39565b9050939250505056fea2646970667358221220f676412fc82c8b6506ed4d64c630ada877eaa4cd04084ae56aa9338edf60b23864736f6c63430008090033",
  "immutableReferences": {},
  "source": "// SPDX-License-Identifier: MIT\npragma solidity ^0.8.9;\n\ncontract MusiciansManager {\n\n  event musicianCreated(string _artistName);\n  event trackAdded(string _artistName, string _title);\n  event getTheTracks(Track[] _tracks);\n\n  struct Track {\n    string _title;\n    uint _duration;\n  }\n\n  struct Musician {\n    string _artistName;\n    Track[] _tracks;\n  }\n\n  mapping(address => Musician) Musicians;\n\n  address owner;\n\n  constructor() {\n    owner = msg.sender;\n  }\n\n  modifier onlyOwner() {\n    require(owner == msg.sender, 'Your not the owner');\n    _;\n  }\n\n  function addMusician(address _musicianAddress, string memory _artistName) external onlyOwner {\n    // On vrifie si on a pas dj ajout ce musicien\n    // On met 'bytes' sinon le '.length' ne fonctionne pas\n    require(bytes(Musicians[_musicianAddress]._artistName).length == 0, 'this musician already exist');\n    // Si il n'existe pas on l'ajoute\n    Musicians[_musicianAddress]._artistName = _artistName;\n    // On emet l'evenement\n    emit musicianCreated(_artistName);\n  }\n\n  function addTrack(address _musicianAddress, string memory _title, uint _duration) external onlyOwner {\n    // On vrifie que le musicien existe bel et bien avant de lui ajouter une track\n    require(bytes(Musicians[_musicianAddress]._artistName).length > 0, 'this musician does not exist');\n    // On va crer la structure Track pour la track que l'on souhaite crer\n    Track memory thisTrack = Track(_title, _duration);\n    // Dans les tracks du musicien on va ajouter la track que l'on vient de crer\n    Musicians[_musicianAddress]._tracks.push(thisTrack);\n    // On emet l'event\n    emit trackAdded(Musicians[_musicianAddress]._artistName, _title);\n  }\n\n  function getTracks(address _musicianAddress) external {\n    emit getTheTracks(Musicians[_musicianAddress]._tracks);\n  }\n}\n",
  "sourcePath": "/Users/alexisjobart/Desktop/labelContract/contracts/MusiciansManager.sol",
  "compiler": {
    "name": "solc",
    "version": "0.8.9+commit.e5eed63a.Emscripten.clang"
  },
  "schemaVersion": "3.4.5",
  "updatedAt": "2022-02-18T17:56:06.806Z",
  "devdoc": {
    "kind": "dev",
    "methods": {},
    "version": 1
  },
  "userdoc": {
    "kind": "user",
    "methods": {},
    "version": 1
  }
}